:0438000000000001C3
:0438010000000001C2
:0438020000000001C1
:043803000000000BB6
:043804000003D0905D
:04380500000001308E
:04380600000000447A
:0438070000000000BD
:0438080000000000BC
:0438090000000000BB
:04380A0000000000BA
:04380B0000000000B9
:04380C0000000000B8
:04380D0000000000B7
:04380E0000000000B6
:04380F0000000000B5
:0438100000000000B4
:04381100000244402D
:0438120000000000B2
:0438130000000101AF
:04381400000823562F
:04381500010B10088B
:043816002004040185
:043817000102110495
:0438180001000101A9
:043819000014010096
:04381A00040402346C
:04381B0000000004A5
:04381C0000000000A8
:04381D000712C0814D
:04381E000090000016
:04381F0000000000A5
:0438200000000000A4
:043821000000202063
:0438220000A40707F0
:04382300011400B0DC
:04382400000000237D
:0438250000001E7809
:043826000000010499
:04382700000000009D
:043828000000000894
:0438290001000C048A
:04382A000908030284
:04382B0000000B0A84
:04382C000000000692
:04382D000000000493
:04382E000002030190
:04382F000000000095
:043830002B2A290016
:043831001211100060
:043832001615141340
:043833001A1918172F
:043834002524231B09
:043835000000272642
:04383600030F0B0071
:04383700000908007C
:04383800000000008C
:04383900241404004F
:04383A002515053417
:04383B002B1B0B3503
:04383C000302013B47
:04383D000908070669
:04383E001312110A46
:04383F001918171627
:043840002322211A04
:0438410029282726E5
:043842003332312AC2
:0438430039383736A3
:043844000000003A46
:043845000000083443
:043846000001030179
:04384700000200106B
:043848000003040075
:04384900000408006F
:04384A000005142041
:04384B000006086A01
:00000001FF
